{
  "_format": "hh-sol-artifact-1",
  "contractName": "SequentialLotto",
  "sourceName": "contracts/SequentialLotto.sol",
  "abi": [
    {
      "inputs": [
        {
          "internalType": "uint256",
          "name": "subscriptionId",
          "type": "uint256"
        },
        {
          "internalType": "address",
          "name": "vrfCoordinator",
          "type": "address"
        }
      ],
      "stateMutability": "nonpayable",
      "type": "constructor"
    },
    {
      "inputs": [
        {
          "internalType": "address",
          "name": "have",
          "type": "address"
        },
        {
          "internalType": "address",
          "name": "want",
          "type": "address"
        }
      ],
      "name": "OnlyCoordinatorCanFulfill",
      "type": "error"
    },
    {
      "inputs": [
        {
          "internalType": "address",
          "name": "have",
          "type": "address"
        },
        {
          "internalType": "address",
          "name": "owner",
          "type": "address"
        },
        {
          "internalType": "address",
          "name": "coordinator",
          "type": "address"
        }
      ],
      "name": "OnlyOwnerOrCoordinator",
      "type": "error"
    },
    {
      "inputs": [],
      "name": "ZeroAddress",
      "type": "error"
    },
    {
      "anonymous": false,
      "inputs": [
        {
          "indexed": false,
          "internalType": "address",
          "name": "vrfCoordinator",
          "type": "address"
        }
      ],
      "name": "CoordinatorSet",
      "type": "event"
    },
    {
      "anonymous": false,
      "inputs": [
        {
          "indexed": true,
          "internalType": "address",
          "name": "from",
          "type": "address"
        },
        {
          "indexed": true,
          "internalType": "address",
          "name": "to",
          "type": "address"
        }
      ],
      "name": "OwnershipTransferRequested",
      "type": "event"
    },
    {
      "anonymous": false,
      "inputs": [
        {
          "indexed": true,
          "internalType": "address",
          "name": "from",
          "type": "address"
        },
        {
          "indexed": true,
          "internalType": "address",
          "name": "to",
          "type": "address"
        }
      ],
      "name": "OwnershipTransferred",
      "type": "event"
    },
    {
      "inputs": [],
      "name": "TICKET_PRICE",
      "outputs": [
        {
          "internalType": "uint256",
          "name": "",
          "type": "uint256"
        }
      ],
      "stateMutability": "view",
      "type": "function"
    },
    {
      "inputs": [],
      "name": "acceptOwnership",
      "outputs": [],
      "stateMutability": "nonpayable",
      "type": "function"
    },
    {
      "inputs": [
        {
          "internalType": "uint8[7]",
          "name": "_numbers",
          "type": "uint8[7]"
        }
      ],
      "name": "buyTicket",
      "outputs": [],
      "stateMutability": "payable",
      "type": "function"
    },
    {
      "inputs": [
        {
          "internalType": "bytes",
          "name": "",
          "type": "bytes"
        }
      ],
      "name": "checkUpkeep",
      "outputs": [
        {
          "internalType": "bool",
          "name": "upkeepNeeded",
          "type": "bool"
        },
        {
          "internalType": "bytes",
          "name": "",
          "type": "bytes"
        }
      ],
      "stateMutability": "view",
      "type": "function"
    },
    {
      "inputs": [],
      "name": "interval",
      "outputs": [
        {
          "internalType": "uint256",
          "name": "",
          "type": "uint256"
        }
      ],
      "stateMutability": "view",
      "type": "function"
    },
    {
      "inputs": [],
      "name": "lastDrawTimestamp",
      "outputs": [
        {
          "internalType": "uint256",
          "name": "",
          "type": "uint256"
        }
      ],
      "stateMutability": "view",
      "type": "function"
    },
    {
      "inputs": [
        {
          "internalType": "uint256",
          "name": "",
          "type": "uint256"
        }
      ],
      "name": "lastWinningNumbers",
      "outputs": [
        {
          "internalType": "uint8",
          "name": "",
          "type": "uint8"
        }
      ],
      "stateMutability": "view",
      "type": "function"
    },
    {
      "inputs": [],
      "name": "owner",
      "outputs": [
        {
          "internalType": "address",
          "name": "",
          "type": "address"
        }
      ],
      "stateMutability": "view",
      "type": "function"
    },
    {
      "inputs": [
        {
          "internalType": "bytes",
          "name": "",
          "type": "bytes"
        }
      ],
      "name": "performUpkeep",
      "outputs": [],
      "stateMutability": "nonpayable",
      "type": "function"
    },
    {
      "inputs": [
        {
          "internalType": "uint256",
          "name": "requestId",
          "type": "uint256"
        },
        {
          "internalType": "uint256[]",
          "name": "randomWords",
          "type": "uint256[]"
        }
      ],
      "name": "rawFulfillRandomWords",
      "outputs": [],
      "stateMutability": "nonpayable",
      "type": "function"
    },
    {
      "inputs": [],
      "name": "s_owner",
      "outputs": [
        {
          "internalType": "address",
          "name": "",
          "type": "address"
        }
      ],
      "stateMutability": "view",
      "type": "function"
    },
    {
      "inputs": [],
      "name": "s_vrfCoordinator",
      "outputs": [
        {
          "internalType": "contract IVRFCoordinatorV2Plus",
          "name": "",
          "type": "address"
        }
      ],
      "stateMutability": "view",
      "type": "function"
    },
    {
      "inputs": [
        {
          "internalType": "address",
          "name": "_vrfCoordinator",
          "type": "address"
        }
      ],
      "name": "setCoordinator",
      "outputs": [],
      "stateMutability": "nonpayable",
      "type": "function"
    },
    {
      "inputs": [
        {
          "internalType": "uint256",
          "name": "",
          "type": "uint256"
        }
      ],
      "name": "tickets",
      "outputs": [
        {
          "internalType": "address",
          "name": "player",
          "type": "address"
        }
      ],
      "stateMutability": "view",
      "type": "function"
    },
    {
      "inputs": [
        {
          "internalType": "address",
          "name": "to",
          "type": "address"
        }
      ],
      "name": "transferOwnership",
      "outputs": [],
      "stateMutability": "nonpayable",
      "type": "function"
    },
    {
      "stateMutability": "payable",
      "type": "receive"
    }
  ],
  "bytecode": "0x6080604052620151806004557f787d74caea10b2b357790d5b5247c2f63d1d91572a9846f780606e4d953677ae60001b600955622625a0600a60006101000a81548163ffffffff021916908363ffffffff1602179055506003600a60046101000a81548161ffff021916908361ffff1602179055503480156200008157600080fd5b506040516200262c3803806200262c8339818101604052810190620000a791906200047b565b80338060008073ffffffffffffffffffffffffffffffffffffffff168273ffffffffffffffffffffffffffffffffffffffff16036200011d576040517f08c379a0000000000000000000000000000000000000000000000000000000008152600401620001149062000523565b60405180910390fd5b816000806101000a81548173ffffffffffffffffffffffffffffffffffffffff021916908373ffffffffffffffffffffffffffffffffffffffff160217905550600073ffffffffffffffffffffffffffffffffffffffff168173ffffffffffffffffffffffffffffffffffffffff1614620001a457620001a381620002a760201b60201c565b5b505050600073ffffffffffffffffffffffffffffffffffffffff168173ffffffffffffffffffffffffffffffffffffffff16036200020e576040517fd92e233d00000000000000000000000000000000000000000000000000000000815260040160405180910390fd5b80600260006101000a81548173ffffffffffffffffffffffffffffffffffffffff021916908373ffffffffffffffffffffffffffffffffffffffff16021790555050816008819055504260038190555033600760006101000a81548173ffffffffffffffffffffffffffffffffffffffff021916908373ffffffffffffffffffffffffffffffffffffffff1602179055505050620005b7565b3373ffffffffffffffffffffffffffffffffffffffff168173ffffffffffffffffffffffffffffffffffffffff160362000318576040517f08c379a00000000000000000000000000000000000000000000000000000000081526004016200030f9062000595565b60405180910390fd5b80600160006101000a81548173ffffffffffffffffffffffffffffffffffffffff021916908373ffffffffffffffffffffffffffffffffffffffff1602179055508073ffffffffffffffffffffffffffffffffffffffff1660008054906101000a900473ffffffffffffffffffffffffffffffffffffffff1673ffffffffffffffffffffffffffffffffffffffff167fed8889f560326eb138920d842192f0eb3dd22b4f139c87a2c57538e05bae127860405160405180910390a350565b600080fd5b6000819050919050565b620003f081620003db565b8114620003fc57600080fd5b50565b6000815190506200041081620003e5565b92915050565b600073ffffffffffffffffffffffffffffffffffffffff82169050919050565b6000620004438262000416565b9050919050565b620004558162000436565b81146200046157600080fd5b50565b60008151905062000475816200044a565b92915050565b60008060408385031215620004955762000494620003d6565b5b6000620004a585828601620003ff565b9250506020620004b88582860162000464565b9150509250929050565b600082825260208201905092915050565b7f43616e6e6f7420736574206f776e657220746f207a65726f0000000000000000600082015250565b60006200050b601883620004c2565b91506200051882620004d3565b602082019050919050565b600060208201905081810360008301526200053e81620004fc565b9050919050565b7f43616e6e6f74207472616e7366657220746f2073656c66000000000000000000600082015250565b60006200057d601783620004c2565b91506200058a8262000545565b602082019050919050565b60006020820190508181036000830152620005b0816200056e565b9050919050565b61206580620005c76000396000f3fe6080604052600436106100ec5760003560e01c806379ba50971161008a578063947a36fb11610059578063947a36fb146102df5780639eccacf61461030a578063e397824014610335578063f2fde38b14610360576100f3565b806379ba5097146102495780638c21460b146102605780638da5cb5b1461028b5780638ea98117146102b6576100f3565b80634585e33b116100c65780634585e33b1461016857806350b44712146101915780636e04ff0d146101ce5780637624bb871461020c576100f3565b80631a95f15f146100f85780631fe543e31461012357806339e7397b1461014c576100f3565b366100f357005b600080fd5b34801561010457600080fd5b5061010d610389565b60405161011a919061134f565b60405180910390f35b34801561012f57600080fd5b5061014a6004803603810190610145919061140f565b610394565b005b610166600480360381019061016191906115e5565b61045a565b005b34801561017457600080fd5b5061018f600480360381019061018a9190611668565b610602565b005b34801561019d57600080fd5b506101b860048036038101906101b391906116b5565b610751565b6040516101c59190611723565b60405180910390f35b3480156101da57600080fd5b506101f560048036038101906101f09190611668565b61079f565b6040516102039291906117d8565b60405180910390f35b34801561021857600080fd5b50610233600480360381019061022e91906116b5565b6107cf565b6040516102409190611817565b60405180910390f35b34801561025557600080fd5b5061025e6107f9565b005b34801561026c57600080fd5b5061027561098e565b604051610282919061134f565b60405180910390f35b34801561029757600080fd5b506102a0610994565b6040516102ad9190611723565b60405180910390f35b3480156102c257600080fd5b506102dd60048036038101906102d8919061185e565b6109bd565b005b3480156102eb57600080fd5b506102f4610b9e565b604051610301919061134f565b60405180910390f35b34801561031657600080fd5b5061031f610ba4565b60405161032c91906118ea565b60405180910390f35b34801561034157600080fd5b5061034a610bca565b6040516103579190611723565b60405180910390f35b34801561036c57600080fd5b506103876004803603810190610382919061185e565b610bf0565b005b662386f26fc1000081565b600260009054906101000a900473ffffffffffffffffffffffffffffffffffffffff1673ffffffffffffffffffffffffffffffffffffffff163373ffffffffffffffffffffffffffffffffffffffff161461044a5733600260009054906101000a900473ffffffffffffffffffffffffffffffffffffffff166040517f1cf993f4000000000000000000000000000000000000000000000000000000008152600401610441929190611905565b60405180910390fd5b610455838383610c04565b505050565b662386f26fc1000034146104a3576040517f08c379a000000000000000000000000000000000000000000000000000000000815260040161049a9061198b565b60405180910390fd5b60005b60078110156105475760018282600781106104c4576104c36119ab565b5b602002015160ff16101580156104f5575060318282600781106104ea576104e96119ab565b5b602002015160ff1611155b610534576040517f08c379a000000000000000000000000000000000000000000000000000000000815260040161052b90611a26565b60405180910390fd5b808061053f90611a75565b9150506104a6565b50600660405180604001604052803373ffffffffffffffffffffffffffffffffffffffff16815260200183815250908060018154018082558091505060019003906000526020600020906002020160009091909190915060008201518160000160006101000a81548173ffffffffffffffffffffffffffffffffffffffff021916908373ffffffffffffffffffffffffffffffffffffffff1602179055506020820151816001019060076105fc929190611206565b50505050565b600454600354426106139190611abd565b11801561062557506000600680549050115b1561074d5742600381905550600260009054906101000a900473ffffffffffffffffffffffffffffffffffffffff1673ffffffffffffffffffffffffffffffffffffffff16639b1c385e6040518060c0016040528060095481526020016008548152602001600a60049054906101000a900461ffff1661ffff168152602001600a60009054906101000a900463ffffffff1663ffffffff168152602001600763ffffffff1681526020016106e9604051806020016040528060001515815250610ca5565b8152506040518263ffffffff1660e01b81526004016107089190611c28565b6020604051808303816000875af1158015610727573d6000803e3d6000fd5b505050506040513d601f19601f8201168201806040525081019061074b9190611c5f565b505b5050565b6006818154811061076157600080fd5b90600052602060002090600202016000915090508060000160009054906101000a900473ffffffffffffffffffffffffffffffffffffffff16905081565b60006060600454600354426107b49190611abd565b1180156107c657506000600680549050115b91509250929050565b600581600781106107df57600080fd5b60209182820401919006915054906101000a900460ff1681565b600160009054906101000a900473ffffffffffffffffffffffffffffffffffffffff1673ffffffffffffffffffffffffffffffffffffffff163373ffffffffffffffffffffffffffffffffffffffff1614610889576040517f08c379a000000000000000000000000000000000000000000000000000000000815260040161088090611cd8565b60405180910390fd5b60008060009054906101000a900473ffffffffffffffffffffffffffffffffffffffff169050336000806101000a81548173ffffffffffffffffffffffffffffffffffffffff021916908373ffffffffffffffffffffffffffffffffffffffff1602179055506000600160006101000a81548173ffffffffffffffffffffffffffffffffffffffff021916908373ffffffffffffffffffffffffffffffffffffffff1602179055503373ffffffffffffffffffffffffffffffffffffffff168173ffffffffffffffffffffffffffffffffffffffff167f8be0079c531659141344cd1fd0a4f28419497f9722a3daafe3b4186f6b6457e060405160405180910390a350565b60035481565b60008060009054906101000a900473ffffffffffffffffffffffffffffffffffffffff16905090565b6109c5610994565b73ffffffffffffffffffffffffffffffffffffffff163373ffffffffffffffffffffffffffffffffffffffff1614158015610a4e5750600260009054906101000a900473ffffffffffffffffffffffffffffffffffffffff1673ffffffffffffffffffffffffffffffffffffffff163373ffffffffffffffffffffffffffffffffffffffff1614155b15610abd5733610a5c610994565b600260009054906101000a900473ffffffffffffffffffffffffffffffffffffffff166040517f061db9c1000000000000000000000000000000000000000000000000000000008152600401610ab493929190611cf8565b60405180910390fd5b600073ffffffffffffffffffffffffffffffffffffffff168173ffffffffffffffffffffffffffffffffffffffff1603610b23576040517fd92e233d00000000000000000000000000000000000000000000000000000000815260040160405180910390fd5b80600260006101000a81548173ffffffffffffffffffffffffffffffffffffffff021916908373ffffffffffffffffffffffffffffffffffffffff1602179055507fd1a6a14209a385a964d036e404cb5cfb71f4000cdb03c9366292430787261be681604051610b939190611723565b60405180910390a150565b60045481565b600260009054906101000a900473ffffffffffffffffffffffffffffffffffffffff1681565b600760009054906101000a900473ffffffffffffffffffffffffffffffffffffffff1681565b610bf8610d3d565b610c0181610dcd565b50565b60005b6007811015610c895760016031848484818110610c2757610c266119ab565b5b90506020020135610c389190611d5e565b610c429190611d8f565b60058260078110610c5657610c556119ab565b5b602091828204019190066101000a81548160ff021916908360ff1602179055508080610c8190611a75565b915050610c07565b50610c92610ef9565b60066000610ca091906112a0565b505050565b60607f92fd13387c7fe7befbc38d303d6468778fb9731bc4583f17d92989c6fcfdeaaa82604051602401610cd99190611dee565b604051602081830303815290604052907bffffffffffffffffffffffffffffffffffffffffffffffffffffffff19166020820180517bffffffffffffffffffffffffffffffffffffffffffffffffffffffff83818316178352505050509050919050565b60008054906101000a900473ffffffffffffffffffffffffffffffffffffffff1673ffffffffffffffffffffffffffffffffffffffff163373ffffffffffffffffffffffffffffffffffffffff1614610dcb576040517f08c379a0000000000000000000000000000000000000000000000000000000008152600401610dc290611e55565b60405180910390fd5b565b3373ffffffffffffffffffffffffffffffffffffffff168173ffffffffffffffffffffffffffffffffffffffff1603610e3b576040517f08c379a0000000000000000000000000000000000000000000000000000000008152600401610e3290611ec1565b60405180910390fd5b80600160006101000a81548173ffffffffffffffffffffffffffffffffffffffff021916908373ffffffffffffffffffffffffffffffffffffffff1602179055508073ffffffffffffffffffffffffffffffffffffffff1660008054906101000a900473ffffffffffffffffffffffffffffffffffffffff1673ffffffffffffffffffffffffffffffffffffffff167fed8889f560326eb138920d842192f0eb3dd22b4f139c87a2c57538e05bae127860405160405180910390a350565b600047905060008103610f0c5750611204565b60006064600a83610f1d9190611ee1565b610f279190611f23565b90506000600760009054906101000a900473ffffffffffffffffffffffffffffffffffffffff1673ffffffffffffffffffffffffffffffffffffffff1682604051610f7190611f85565b60006040518083038185875af1925050503d8060008114610fae576040519150601f19603f3d011682016040523d82523d6000602084013e610fb3565b606091505b5050905080610ff7576040517f08c379a0000000000000000000000000000000000000000000000000000000008152600401610fee90611fe6565b60405180910390fd5b60005b6006805490508110156111ff576000805b60078110156110c15760058160078110611028576110276119ab565b5b602091828204019190069054906101000a900460ff1660ff1660068481548110611055576110546119ab565b5b90600052602060002090600202016001018260078110611078576110776119ab565b5b602091828204019190069054906101000a900460ff1660ff16036110a95781806110a190612006565b9250506110ae565b6110c1565b80806110b990611a75565b91505061100b565b50600060028260ff16036110d85760059050611137565b60038260ff16036110ec57600a9050611136565b60048260ff160361110057600f9050611135565b60058260ff161480611115575060068260ff16145b156111235760149050611134565b60078260ff160361113357601e90505b5b5b5b5b60008111156111ea576000606482886111509190611ee1565b61115a9190611f23565b9050600684815481106111705761116f6119ab565b5b906000526020600020906002020160000160009054906101000a900473ffffffffffffffffffffffffffffffffffffffff1673ffffffffffffffffffffffffffffffffffffffff166108fc829081150290604051600060405180830381858888f193505050501580156111e7573d6000803e3d6000fd5b50505b505080806111f790611a75565b915050610ffa565b505050505b565b826007601f0160209004810192821561128f5791602002820160005b8382111561126057835183826101000a81548160ff021916908360ff1602179055509260200192600101602081600001049283019260010302611222565b801561128d5782816101000a81549060ff0219169055600101602081600001049283019260010302611260565b505b50905061129c91906112c4565b5090565b50805460008255600202906000526020600020908101906112c191906112e1565b50565b5b808211156112dd5760008160009055506001016112c5565b5090565b5b8082111561132b57600080820160006101000a81549073ffffffffffffffffffffffffffffffffffffffff0219169055600182016000611322919061132f565b506002016112e2565b5090565b5060009055565b6000819050919050565b61134981611336565b82525050565b60006020820190506113646000830184611340565b92915050565b6000604051905090565b600080fd5b600080fd5b61138781611336565b811461139257600080fd5b50565b6000813590506113a48161137e565b92915050565b600080fd5b600080fd5b600080fd5b60008083601f8401126113cf576113ce6113aa565b5b8235905067ffffffffffffffff8111156113ec576113eb6113af565b5b602083019150836020820283011115611408576114076113b4565b5b9250929050565b60008060006040848603121561142857611427611374565b5b600061143686828701611395565b935050602084013567ffffffffffffffff81111561145757611456611379565b5b611463868287016113b9565b92509250509250925092565b6000601f19601f8301169050919050565b7f4e487b7100000000000000000000000000000000000000000000000000000000600052604160045260246000fd5b6114b88261146f565b810181811067ffffffffffffffff821117156114d7576114d6611480565b5b80604052505050565b60006114ea61136a565b90506114f682826114af565b919050565b600067ffffffffffffffff82111561151657611515611480565b5b602082029050919050565b600060ff82169050919050565b61153781611521565b811461154257600080fd5b50565b6000813590506115548161152e565b92915050565b600061156d611568846114fb565b6114e0565b90508060208402830185811115611587576115866113b4565b5b835b818110156115b0578061159c8882611545565b845260208401935050602081019050611589565b5050509392505050565b600082601f8301126115cf576115ce6113aa565b5b60076115dc84828561155a565b91505092915050565b600060e082840312156115fb576115fa611374565b5b6000611609848285016115ba565b91505092915050565b60008083601f840112611628576116276113aa565b5b8235905067ffffffffffffffff811115611645576116446113af565b5b602083019150836001820283011115611661576116606113b4565b5b9250929050565b6000806020838503121561167f5761167e611374565b5b600083013567ffffffffffffffff81111561169d5761169c611379565b5b6116a985828601611612565b92509250509250929050565b6000602082840312156116cb576116ca611374565b5b60006116d984828501611395565b91505092915050565b600073ffffffffffffffffffffffffffffffffffffffff82169050919050565b600061170d826116e2565b9050919050565b61171d81611702565b82525050565b60006020820190506117386000830184611714565b92915050565b60008115159050919050565b6117538161173e565b82525050565b600081519050919050565b600082825260208201905092915050565b60005b83811015611793578082015181840152602081019050611778565b60008484015250505050565b60006117aa82611759565b6117b48185611764565b93506117c4818560208601611775565b6117cd8161146f565b840191505092915050565b60006040820190506117ed600083018561174a565b81810360208301526117ff818461179f565b90509392505050565b61181181611521565b82525050565b600060208201905061182c6000830184611808565b92915050565b61183b81611702565b811461184657600080fd5b50565b60008135905061185881611832565b92915050565b60006020828403121561187457611873611374565b5b600061188284828501611849565b91505092915050565b6000819050919050565b60006118b06118ab6118a6846116e2565b61188b565b6116e2565b9050919050565b60006118c282611895565b9050919050565b60006118d4826118b7565b9050919050565b6118e4816118c9565b82525050565b60006020820190506118ff60008301846118db565b92915050565b600060408201905061191a6000830185611714565b6119276020830184611714565b9392505050565b600082825260208201905092915050565b7f496e636f72726563742045544820616d6f756e74000000000000000000000000600082015250565b600061197560148361192e565b91506119808261193f565b602082019050919050565b600060208201905081810360008301526119a481611968565b9050919050565b7f4e487b7100000000000000000000000000000000000000000000000000000000600052603260045260246000fd5b7f4e756d62657273206d75737420626520312d3439000000000000000000000000600082015250565b6000611a1060148361192e565b9150611a1b826119da565b602082019050919050565b60006020820190508181036000830152611a3f81611a03565b9050919050565b7f4e487b7100000000000000000000000000000000000000000000000000000000600052601160045260246000fd5b6000611a8082611336565b91507fffffffffffffffffffffffffffffffffffffffffffffffffffffffffffffffff8203611ab257611ab1611a46565b5b600182019050919050565b6000611ac882611336565b9150611ad383611336565b9250828203905081811115611aeb57611aea611a46565b5b92915050565b6000819050919050565b611b0481611af1565b82525050565b611b1381611336565b82525050565b600061ffff82169050919050565b611b3081611b19565b82525050565b600063ffffffff82169050919050565b611b4f81611b36565b82525050565b600082825260208201905092915050565b6000611b7182611759565b611b7b8185611b55565b9350611b8b818560208601611775565b611b948161146f565b840191505092915050565b600060c083016000830151611bb76000860182611afb565b506020830151611bca6020860182611b0a565b506040830151611bdd6040860182611b27565b506060830151611bf06060860182611b46565b506080830151611c036080860182611b46565b5060a083015184820360a0860152611c1b8282611b66565b9150508091505092915050565b60006020820190508181036000830152611c428184611b9f565b905092915050565b600081519050611c598161137e565b92915050565b600060208284031215611c7557611c74611374565b5b6000611c8384828501611c4a565b91505092915050565b7f4d7573742062652070726f706f736564206f776e657200000000000000000000600082015250565b6000611cc260168361192e565b9150611ccd82611c8c565b602082019050919050565b60006020820190508181036000830152611cf181611cb5565b9050919050565b6000606082019050611d0d6000830186611714565b611d1a6020830185611714565b611d276040830184611714565b949350505050565b7f4e487b7100000000000000000000000000000000000000000000000000000000600052601260045260246000fd5b6000611d6982611336565b9150611d7483611336565b925082611d8457611d83611d2f565b5b828206905092915050565b6000611d9a82611336565b9150611da583611336565b9250828201905080821115611dbd57611dbc611a46565b5b92915050565b611dcc8161173e565b82525050565b602082016000820151611de86000850182611dc3565b50505050565b6000602082019050611e036000830184611dd2565b92915050565b7f4f6e6c792063616c6c61626c65206279206f776e657200000000000000000000600082015250565b6000611e3f60168361192e565b9150611e4a82611e09565b602082019050919050565b60006020820190508181036000830152611e6e81611e32565b9050919050565b7f43616e6e6f74207472616e7366657220746f2073656c66000000000000000000600082015250565b6000611eab60178361192e565b9150611eb682611e75565b602082019050919050565b60006020820190508181036000830152611eda81611e9e565b9050919050565b6000611eec82611336565b9150611ef783611336565b9250828202611f0581611336565b91508282048414831517611f1c57611f1b611a46565b5b5092915050565b6000611f2e82611336565b9150611f3983611336565b925082611f4957611f48611d2f565b5b828204905092915050565b600081905092915050565b50565b6000611f6f600083611f54565b9150611f7a82611f5f565b600082019050919050565b6000611f9082611f62565b9150819050919050565b7f4f776e657220706179206661696c656400000000000000000000000000000000600082015250565b6000611fd060108361192e565b9150611fdb82611f9a565b602082019050919050565b60006020820190508181036000830152611fff81611fc3565b9050919050565b600061201182611521565b915060ff820361202457612023611a46565b5b60018201905091905056fea264697066735822122089dccc107376c9c57da60b98041266304ef75a52f737939fd43ab5e01c8e1f3c64736f6c63430008130033",
  "linkReferences": {},
  "deployedLinkReferences": {}
}